:020000040800F2
:10000000000800209F120008AD120008995C030848
:10001000B1120008B3120008B51200080000000079
:10002000000000000000000000000000B7120008FF
:10003000B912000800000000A75900080359000881
:10004000BF120008BF120008BF120008BF1200084C
:10005000BF120008BF120008BF120008BF1200083C
:10006000BF120008BF120008BF120008BF1200082C
:10007000BF120008BF120008BF120008BF1200081C
:10008000BF120008BF120008BF120008BF1200080C
:10009000BF120008BF120008BF120008BF120008FC
:1000A000BF120008BF120008BF120008BF120008EC
:1000B000BF120008BF120008BF120008BF120008DC
:1000C000BF120008BF120008BF120008BF120008CC
:1000D000D732000875290008BF120008B9290008A6
:1000E000BF120008BF120008BF120008BF120008AC
:1000F000BF120008BF120008BF120008BF1200089C
:10010000BF12000889200008BF120008BF120008B3
:10011000BF120008BF120008BF120008BF1200087B
:10012000BF120008BF120008BF120008BF1200086B
:10013000DFF80CD03FF030F9004800477198030811
:10014000282F002010B5044605F00CFC034620685B
:1001500020F001002060002020606060A060E0606E
:10016000744A7448A11A803894423ED012DC724A14
:10017000A4EB020194422CD007DC704961181BD01B
:1001800014291DD028293FD11FE0142925D0282962
:100190003AD126E0B1F56C7F3BD006DCB1F5627F49
:1001A00027D0B1F5677F2FD128E0B1F5717F35D029
:1001B000B1F5767F28D136E0416841F00F0102E0C9
:1001C000416841F0F00141601EE0416841F4706116
:1001D000F9E7416841F47041F5E7416841F4702165
:1001E000F1E7416841F47001EDE7416841F0706169
:1001F000E9E7D0F8041441F00F0103E0D0F804144B
:1002000041F0F001C0F80414BDE81040184605F0B4
:10021000ADBBD0F8041441F47061F3E7D0F80414D6
:1002200041F47041EEE7D0F8041441F47021E9E79D
:1002300070B505460C4605F095FB0146286847F663
:10024000F0729043236AA2681A43D4E90436334318
:100250001A43A3691A43E3691A43636A1A43A36AF8
:100260001A4302432A60E06868602068A8606068FA
:10027000E860BDE87040084605F078BB00210160E9
:1002800041608160C160016141618161C161016260
:1002900041628162704770B504460D4605F062FB0D
:1002A000216815B141F0010101E021F00101216057
:1002B000BDE8704005F05ABB70B504460D461646C1
:1002C00005F050FB21680EB1294300E0A9432160ED
:1002D000BDE8704005F04ABB406880B270470246F6
:1002E00000201749D30002D5D1F8001400E00968B6
:1002F000114200D0012070471149C20002D5C1F857
:100300000404704748607047024600200C49D3003F
:1003100002D5D1F8001400E00968114200D0012094
:1003200070470749C20002D5C1F80404704748600D
:10033000704700008000024044000240F8FFFDBF0B
:1003400000000240934A10B5811A1315D41490424C
:100350002ED00DDC904940181CD0984221D0A042EC
:100360003BD10121102000F0ABFA002110200DE05C
:10037000994224D0A14229D0B1F5406F2DD101215D
:100380000C02204600F09CFA00212046BDE81040F7
:1003900000F096BA0121042000F092FA0021042016
:1003A000F4E70121082000F08BFA00210820EDE796
:1003B0000121202000F084FA00212020E6E701211D
:1003C000402000F07DFA00214020DFE7012180205D
:1003D00000F076FA00218020D8E710BD10B5012189
:1003E000084600F06DFA0021BDE81040012000F041
:1003F00067BAF0B5CC78002204F00F03E40601D50B
:100400008C7823430C884FF00F0C14F0FF0F4FF043
:10041000010E1AD005680E880EFA02F42640A64294
:100420000FD196000CFA06F7BD4303FA06F63543E2
:10043000CE78282E02D0482E02D002E0446100E09F
:100440000461521C082AE6D305600A88FF2A1DD9D8
:100450004568002202F108060EFA06F40E882640CE
:10046000A6420FD196000CFA06F725EA070703FA11
:1004700006F5CE783D43282E00D14461CE78482E33
:1004800000D10461521C082AE4D34560F0BD4FF648
:10049000FF710180022181700421C1707047024602
:1004A000002092680A4200D001207047806880B224
:1004B000704702460020D2680A4200D001207047EF
:1004C000C06880B2704701617047416170470AB1EE
:1004D0000161704741617047C160704741F48032EB
:1004E0008261816182618169806970472B4B10B59F
:1004F0001A684FF68074224042EA001008431860E0
:1005000010BD2749C86170472DE9F041044688466F
:1005100005F028FA214B05465868610D0901A2B281
:10052000C4F301578A40C4F30346032F05D0E10208
:100530000AD50321B140884307E020F07061586874
:1005400020F07060586002E0904340F07061B8F1B4
:10055000000F00D0114359602846BDE8F04105F076
:1005600005BA70B504460D4605F0FCF9A9070A0F57
:100570000A4925F0030529440F238D6893409D43C4
:100580008D608B68944023438B60BDE8704005F01C
:10059000EDB900000014014000F8FEBF000001406A
:1005A0000000204210B505F0DDF9E5490A6842F087
:1005B00001020A604A68E34B1A404A600A68E24B4B
:1005C0001A400A600A6822F480220A604A6822F40B
:1005D000FE024A6000228A60BDE8104005F0C6B9FC
:1005E00010B5044605F0BEF90146D548026822F46C
:1005F00080320260026822F480220260B4F5803FFB
:1006000003D0B4F5802F08D103E0026842F48032B1
:1006100002E0026842F4A0220260BDE810400846F1
:1006200005F0A4B9034600205909C54A01290AD09A
:1006300002290AD0516A03F01F02012393400B42A2
:1006400000D0012070471168F5E7116AF3E730B573
:1006500000244FF4A0653120FFF7E4FF641C08B9C3
:10066000AC42F8D13120FFF7DDFF002800D0012097
:1006700030BD10B5044605F075F9B14A116821F096
:10068000F80141EAC4011160BDE8104005F06EB9FF
:10069000AE490860704770B504460D4605F062F932
:1006A000A74B59682C4321F47C1214435C60BDE8CD
:1006B000704005F05BB9A5490866704710B504465F
:1006C00005F050F99E4A516821F003012143516021
:1006D000BDE8104005F04AB99948406800F00C00A8
:1006E000704710B5044605F03DF9954A516821F070
:1006F000F00121435160BDE8104005F037B910B555
:10070000044605F02FF98E4A516821F4E061214337
:100710005160BDE8104005F029B910B5044605F058
:1007200021F9874A516821F4605141EAC4015160BE
:10073000BDE8104005F01AB970B504460D4605F045
:1007400011F97F4A1DB1517A2143517202E0537A67
:10075000A3435372BDE8704005F008B97C490860B6
:10076000704710B5044605F0FDF8754A516821F44C
:10077000404121435160BDE8104005F0F7B810B585
:10078000044605F0EFF8014672480022027000F8B6
:100790002029012C02D0042C05D101E0012200E027
:1007A000052280F82020BDE81040084605F0DEB89C
:1007B00069490860704710B5044605F0D3F86049F0
:1007C0000A6A22430A62BDE8104005F0CFB86349C7
:1007D000086070475A4A10B55168614B11F00C011E
:1007E00003D0042903D0082903D0036015E05D4934
:1007F00012E05168022301F4701103EB9141536838
:1008000013F4803F04D053689B0303D5564B02E09A
:10081000564B00E0534B594301605168544B01F073
:10082000F00109095C5C0168E1404160546804F42E
:10083000E064240A1C5D21FA04F48460546804F422
:100840006054E40A1B5DD940C1605268484B02F411
:100850004042920B1B1F9A5CB1FBF2F1016110BD8B
:1008600070B504460D4605F07DF8354A51690DB165
:10087000214300E0A1435161BDE8704005F076B826
:1008800070B504460D4605F06DF82D4A91690DB11D
:10089000214300E0A1439161BDE8704005F066B8D6
:1008A00070B504460D4605F05DF8254AD1690DB1D5
:1008B000214300E0A143D161BDE8704005F056B886
:1008C00070B504460D4605F04DF81D4AD1680DB1CE
:1008D000214300E0A143D160BDE8704005F046B877
:1008E00070B504460D4605F03DF8154A11690DB185
:1008F000214300E0A1431161BDE8704005F036B826
:100900001C49086070471149C86470470C49C87198
:10091000704710B505F026F809494A6A42F080721E
:100920004A62BDE8104005F021B8054A01460020A2
:1009300092680A4200D001207047014988727047CE
:10094000001002400000FFF8FFFFF6FE00004242E8
:10095000D800424220100240800442423C044242FD
:1009600000127A00001BB700808D5B0000093D007B
:100970007805040840044242724800210160416049
:100980008160C16041628162C1626F4A8263C163FA
:10099000704770B5044604F0E5FF6A4B014658689D
:1009A00047F6FF6290432278E56826692A43A568E6
:1009B00035432A43656864692A43224302435A60E7
:1009C000BDE87040084604F0D1BF002101704160CD
:1009D0008160C1600161416170475C490860704796
:1009E00010B5044604F0BEFF56490A6822F003021F
:1009F0000A600A6822430A60BDE8104004F0B6BFEE
:100A00005048006800F00300704770B504460D467A
:100A100004F0A8FF4B49CA6B0DB1224300E0A2438A
:100A2000CA63BDE8704004F0A1BF4949086070473F
:100A300070B5044604F096FF014642482268826081
:100A4000C268D4E901352B43D4E9035425436FF33D
:100A50000A022B431343C360BDE87040084604F00C
:100A600085BF0021016041608160C1600161704704
:100A700034480069C0B27047324908444069704741
:100A800070B5044604F06EFF01462E4822684262AB
:100A900062688262C26AD4E902352B43D4E9045405
:100AA000254322F0F7022B431343C362BDE8704095
:100AB000084604F05BBF4FF0FF3101600021416048
:100AC0008160C1600161416170471E48006B7047E1
:100AD0002048006870471F49086070471948806CBB
:100AE00070471D49086070471C49086070471C49E1
:100AF000086070471B49086070471B4908607047D1
:100B00001A49086070470121814319480160704704
:100B10001849086070470B4A01460020526B0A4290
:100B200000D001207047074988637047054A014695
:100B30000020526B0A4200D00120704701498863AF
:100B40007047000000800140FF07C000A000304255
:100B50008C05304280800140A0053042A40530421F
:100B6000A8053042AC053042AC013042B001304201
:100B7000B4013042B8013042CA4910B5401810D013
:100B8000B0F5806F10D0B0F5784F18D101210C036B
:100B90002046FFF795FE2046BDE810400021FFF7F4
:100BA0008FBE01218C0301E00121CC032046FFF719
:100BB00097FE2046BDE810400021FFF791BE10BD12
:100BC00070B505460C4604F0CDFE014628886388C2
:100BD00000F441522088E6881843A3883343184321
:100BE0002389184363891843A3891843E389184369
:100BF00010432880A88B20F40060A883208A2882D4
:100C0000BDE87040084604F0B1BE2DE9F04786B05B
:100C100005460C46022600274FF0010804F0A2FE0C
:100C20008246A88B4FF240010840A8830220288406
:100C3000B5F81C90208902281ED0A08800B1B046CB
:100C40006846FFF7C7FDE088B0F5007F2FD0208908
:100C50004FEA48114143009800EB80004000B0FB90
:100C6000F1F0401D80B20A21B0FBF1F101F001006A
:100C7000091AC1F34F060702B01EFE2801D302264F
:100C80000027E0883E4330432884208861886289B9
:100C90000843A1881143084340EA090040F400607A
:100CA000A883504604F062FE06B0BDE8F0870098C5
:100CB000218900EB800040000902D0E7002101807B
:100CC00041808180C180018141818181C181072171
:100CD000018270470021018041808180C180022211
:100CE00002814181704770B504460D4604F03AFE1A
:100CF000218815B141F0400101E021F0400121803F
:100D0000BDE8704004F032BE70B504460D4604F0F4
:100D100029FEA18B15B141F4806101E021F48061CD
:100D2000A183BDE8704004F021BE70B504460E46B4
:100D3000154604F017FE034630090121814088B2B0
:100D4000A1880DB1014300E08143A180BDE870405E
:100D5000184604F00BBE70B504460D46164604F066
:100D600001FEA1880EB1294300E0A943A180BDE89E
:100D7000704004F0FBBD818170478089704770B579
:100D800004460D4604F0EEFDA5F57E41FF392188AD
:100D900002D041F4807101E021F480712180BDE82E
:100DA000704004F0E3BD70B504460D4604F0DAFD72
:100DB000A18815B141F0040101E021F00401A180F6
:100DC000BDE8704004F0D2BD70B504460D4604F095
:100DD000C9FD218821F400612180218829432180D7
:100DE000BDE8704004F0C2BD10B5044604F0BAFD81
:100DF000218841F480512180BDE8104004F0B6BD47
:100E000070B504460D4604F0ADFD218815B141F4DE
:100E1000005101E021F400512180BDE8704004F050
:100E2000A5BD012901D0008B7047808A7047008AD8
:100E3000704770B504460D4604F094FD2188B5F561
:100E4000804F06D021F480412180BDE8704004F03D
:100E50008DBD41F48041F7E70246002012890A4225
:100E600000D001207047C9430181704710B501F0DF
:100E70000F03012404FA03F30246002009098C4001
:100E800091889BB2A4B2128921401A4202D0002953
:100E900000D0012010BD01F00F0201219140C94393
:100EA0000181704700C8FFBFF94A10B5811A1315B8
:100EB00090421BD007DCF749401814D0984223D148
:100EC0000121040217E0994213D0B1F56C4F1BD1F8
:100ED00001218C032046FFF7F3FC2046BDE81040BB
:100EE0000021FFF7EDBC01214C0404E00121CC04FA
:100EF00001E001210C052046FFF7F2FC2046BDE889
:100F000010400021FFF7ECBC10BD70B586B0044660
:100F10000D4604F027FD0646208A4CF6FF71084076
:100F2000E98801432182A0894EF6F3110840A9887F
:100F30002A8911436A8902431143A181A08A4FF68D
:100F4000FF410840A9890143A1826846FFF742FC9E
:100F5000D148844201D1039800E00298642200EB5A
:100F6000C00101EB001029686FF018058900B0FB83
:100F7000F1F0B0FBF2F109010B096B4300EB8300C8
:100F8000322303EB0010B0FBF2F000F00F00084337
:100F90002081304604F0EAFC06B070BD4FF41651D3
:100FA000016000218180C18001810C224281818108
:100FB000704770B505460C4604F0D4FC2A8A4FF2FF
:100FC000FF010A40218863881943A388E4882343EA
:100FD000194311432982BDE8704004F0C7BC0021C9
:100FE000018041808180C180704770B504460D4604
:100FF00004F0B8FCA18915B141F4005101E021F4DD
:101000000051A181BDE8704004F0B0BC70B5044649
:101010000E46154604F0A6FC014606F01F0301200B
:10102000C6F342129840012A06D0022A06D0143490
:1010300022682DB1024304E00C34F9E71034F7E7DD
:1010400082432260BDE87040084604F08FBC70B552
:1010500004460D46164604F085FCA18A0EB12943CC
:1010600000E0A943A182BDE8704004F07FBC70B5E8
:1010700004460D4604F076FC218A21F00F012182FE
:10108000218A29432182BDE8704004F06FBC70B50D
:1010900004460D4604F066FCA18921F40061A1819B
:1010A000A1892943A181BDE8704004F05FBC70B5FF
:1010B00004460D4604F056FCA18915B141F0020129
:1010C00001E021F00201A181BDE8704004F04EBCB6
:1010D00070B504460D4604F045FC218A21F020013C
:1010E0002182218A29432182BDE8704004F03EBC60
:1010F00070B504460D4604F035FC218A15B141F463
:10110000804101E021F480412182BDE8704004F07B
:101110002DBCC1F30801818070478088C0F30800AE
:10112000704710B5044604F01DFCA18941F001018F
:10113000A181BDE8104004F019BC70B504460D460D
:1011400004F010FC218BC9B22183218B41EA0521D7
:101150002183BDE8704004F009BC70B504460D461B
:1011600004F000FC218B01F47F412183218B294372
:101170002183BDE8704004F0F9BB70B504460D460C
:1011800004F0F0FBA18A15B141F0200101E021F04B
:101190002001A182BDE8704004F0E8BB70B50446B0
:1011A0000D4604F0DFFBA18A15B141F0100101E00A
:1011B00021F01001A182BDE8704004F0D7BB70B5EA
:1011C00004460D4604F0CEFBA18A15B141F008019A
:1011D00001E021F00801A182BDE8704004F0C6BB27
:1011E00070B504460D4604F0BDFBA18A21F0040150
:1011F000A182A18A2943A182BDE8704004F0B6BB58
:1012000070B504460D4604F0ADFBA18A15B141F05E
:10121000020101E021F00201A182BDE8704004F06A
:10122000A5BB0246002012880A4200D00120704768
:10123000C9430180704770B501F01F0601250024E5
:10124000C1F3421305FA06F2012B0FD0022B0FD087
:10125000838A4FEA11210088134205FA01F500EA5A
:10126000050001D000B10124204670BD8389F0E75C
:10127000038AEEE770B504460D4604F073FB2A0AB4
:1012800001219140C9432180BDE8704004F06EBB4C
:10129000004C004000BCFFBF0038014070470849C7
:1012A00081F308880748804707480047FEE7FEE7C4
:1012B000FEE7FEE7FEE7FEE7FEE7FEE7FEE7FEE706
:1012C000282F0020AD1300083101000833490843DE
:1012D00033490860704770B504460F2504F042FB9F
:1012E0000246E0784FF0E0210126E8B1D1F80C0D7C
:1012F00000F4E060C0F5E060000AC0F10403C540FE
:1013000060789840A3782B400343180123780B445E
:1013100083F80004207800F01F039E40400901EB91
:101320008000C0F8006108E0207800F01F039E40B4
:10133000400901EB8000C0F88061BDE870401046B4
:1013400004F014BB174A114001431748016070476D
:1013500070B504460D4604F005FB4FF0E022D2F8CC
:10136000101D0DB1214300E0A143C2F8101DBDE8DE
:10137000704004F0FBBA10B5044604F0F3FA4FF0E5
:10138000E021042C0A6906D022F004020A61BDE8BB
:10139000104004F0EBBA42F00402F7E70000FA054F
:1013A0000CED00E080FFFF1F08ED00E02F48016812
:1013B00041F00101016041682D4A1140416001681E
:1013C0002C4A11400160016821F4802101604168CC
:1013D00021F4FE01416000218160AFF300802349C8
:1013E00000200A6842F480320A604FF4A0630A6861
:1013F00000F1010012F4003F01D19842F7D10868D2
:10140000800331D51C48026842F010020260026875
:1014100022F003020260026842F0020202604868A1
:10142000486048684860486840F4806048604868A0
:1014300020F47C104860486840F4881048600868D0
:1014400040F08070086008688001FCD5486820F092
:1014500003004860486840F0020048604868C0F3F4
:1014600081000228FAD17047FEE700000010024018
:101470000000FFF8FFFFF6FE0020024010B501213A
:101480000C072046FFF72CFA2046BDE8104000214B
:10149000FFF726BA2A490862704729490861704750
:1014A00010B5044604F05EFA264A116821F0E00106
:1014B00021431160BDE8104004F058BA2249086089
:1014C000704770B505460C4604F04CFA1D4B196880
:1014D00021F003022A431A601C490A6842F0040200
:1014E0000A60012C04D020BFBDE8704004F03EBA71
:1014F00030BFF9E71348016841F004010160016859
:1015000041F0020101601148016841F004010160ED
:1015100030BF70470B4A0146002052680A4200D093
:101520000120704710B5044604F01CFA05490A680A
:1015300042EA84020A60BDE8104004F017BA0000D5
:1015400000000E4200700040A0000E4210ED00E0CE
:1015500001218805FFF759BA2DE9F04106460D46ED
:10156000002742F21070FF494C6B02E04C6B401EAA
:1015700007D314F0450FF9D060071CD503240420CD
:101580001DE004F001FD4FF47A75B0FBF5F105FBA9
:10159000110604F0F9FCB0FBF5F13246F2A03EF082
:1015A0002BF82146F4A03EF027F8F5A03EF024F8F1
:1015B0002920BDE8F081E00705D001242046FFF78F
:1015C000B2FA2046F5E7FFF753FAB04208D14FF4DC
:1015D0000C60FFF7A8FA0020FFF74EFA010501D5CD
:1015E0001020E6E7810501D52120E2E7C10501D5FC
:1015F0000820DEE705B128703846DAE7F0B585B097
:1016000000240A9D002801D04FF0004040EA0170FC
:101610000090204602D00DB14FF000600099D94EE5
:10162000084340EA422018430090342001904020B3
:10163000CDE9020400010490B06804F046FA4FF4CA
:101640008050FFF768FA48B94FF40050FFF763FA8B
:1016500020B94FF40060FFF75EFAB8B104F094FCD3
:101660004FF47A74B0FBF4F104FB110704F08CFC26
:10167000B0FBF4F13A46BCA03DF0BEFFB948416B67
:10168000C1A03DF0B9FFBEA03DF0B6FFC748FFF7CF
:101690004AFA6846FFF7CCF929463420FFF75CFF89
:1016A0000446B06804F035FA05B02046F0BD38B500
:1016B0001C46049B00932346FFF7A0FF38BD7CB572
:1016C00001AB009300230646132219461846FFF784
:1016D000EEFF04004FF47A7510D004F055FCB0FB17
:1016E000F5F105FB110604F04FFCB0FBF5F13246B5
:1016F0009DA03DF081FF2146ADA023E09DF80400B0
:1017000016B140F0020001E020F002000023009337
:101710008DF80400C3B2132200210120FFF7C7FF98
:10172000040014D004F030FCB0FBF5F105FB110609
:1017300004F02AFCB0FBF5F132468BA03DF05CFFD3
:101740002146A2A03DF058FF8DA03DF055FF204658
:101750007CBD2DE9FF4700248246A04625464FF474
:101760007A7903AB009305EB0A2200230932514634
:101770001846FFF79CFF002851D19DF80C00E900A6
:10178000884004436D1C032DEBD302AB009322462B
:101790000023641C51461846FFF789FF05004FD10E
:1017A0009DF80800FF284BD00028EED001AB009335
:1017B0000023661C224651461846FFF778FF0500B5
:1017C0003ED19DF80400FF2867D004F0DDFBB0FB9C
:1017D000F9F109FB11074C4604F0D6FBB0FBF4F11C
:1017E0003A4681A03DF008FF9DF804209DF80810BE
:1017F00081A03DF001FF62A03DF0FEFEB8F1090FAF
:101800001ED89DF8041080291AD88231804805F02E
:10181000D4FB070001D0002418E06FF00B0004B0E7
:10182000BDE8F0873B199B1C0093002332195146F9
:101830001846FFF73CFF050007D0384605F00EFAC2
:101840009DF80400FF2828D028E0641C9DF80400BF
:101850008442E7D39DF80800152815D104F094FBC5
:10186000B0FBF9F109FB11054C4604F08DFBB0FB10
:10187000F4F12A465CA03DF0BFFE391D65A03DF0A5
:10188000BBFE3FA03DF0B8FE384605F0E7F99DF8F5
:10189000040008F10108341877E700252846BEE760
:1018A000002056E72DE9FC415B4E002001AB306083
:1018B0007060B0600093034602460146FFF7F7FEF2
:1018C00004004FF47A774CD19DF8040000F00F0526
:1018D000022D17DD04F058FBB0FBF7F107FB1104F4
:1018E00004F052FBB0FBF7F122461FA03DF084FE4E
:1018F00029464AA03DF080FE21A03DF07DFE292032
:10190000BDE8FC81000901AB306000930023082290
:1019100019461846FFF7CBFE040022D19DF80400BB
:10192000810703D5B16841F00101B160410603D5DB
:10193000B16841F00201B160000603D5B06840F023
:101940000400B060012D7DDB01AB00930023122267
:1019500019461846FFF7ABFE040002D19DF80400BB
:1019600071E082E0008001405B453A2025642E252D
:101970003033645D200000007374613A2578000004
:101980000D0A0000000000206D6D635F696F5F72DB
:10199000775F6469726563745F686F7374206275E2
:1019A00073793A253038780A00000000FFFFBF0045
:1019B0006D6D635F7364696F5F7377697463685F8C
:1019C0006873206572723A25640A00006D6D635F6A
:1019D0007364696F5F7377697463685F68732065A8
:1019E0007272313A25640A005B493A2025642E253B
:1019F0003033645D2000000074706C20636F646598
:101A00003A25782C73697A653A25640A000000004B
:101A10009405040825730A003C080020756E726561
:101A2000636F676E69736564204343435220737428
:101A3000727563747572652076657273696F6E2056
:101A400025640A0027E0C00703D0B06840F0080012
:101A5000B060022D1FDB01AB009300231322194657
:101A60001846FFF724FE040017D004F08DFAB0FBEF
:101A7000F7F107FB110504F087FAB0FBF7F12A46EE
:101A8000AFF21C103DF0B8FDFFA03DF0B5FDAFF288
:101A900010103DF0B1FD204632E79DF80400C0076C
:101AA000F9D0B06840F01000B060F4E770B5FB4BBF
:101AB0000546002442F21071586B02E0586B491E33
:101AC00007D310F0450FF9D0410704D503240420B3
:101AD00005E0292070BDC00704D001242046FFF78F
:101AE00022F859E0FEF7C4FFA8422BD140F2FF5084
:101AF000FFF719F80020FEF7BFFFE94908424BD075
:101B0000002801DA1C2070BD410001D5092070BDFC
:101B1000810001D50A2070BDC10001D50B2070BD28
:101B2000010101D50C2070BD410101D50D2070BD12
:101B3000C10101D50E2070BD010201D50F2070BD7D
:101B4000410201D5102070BD810201D5112070BD68
:101B5000C10201D5122070BD010301D5132070BD53
:101B6000410301D5142070BD810301D5152070BD3E
:101B7000C10301D5162070BD010401D5172070BD29
:101B8000410401D5182070BD810401D5192070BD14
:101B9000000701D51A2070BD204670BD70B586B013
:101BA00000900720019040200290002003904FF405
:101BB000806004906846FEF73BFF0720FFF776FF42
:101BC000050018D004F0E0F94FF47A74B0FBF4F19A
:101BD00004FB110604F0D8F9B0FBF4F13246AFF281
:101BE00078203DF009FD2946AEA03DF005FDAFF29D
:101BF00070203DF001FD284606B070BD70B586B07E
:101C000004002CD000200321CDE900014021CDE9C2
:101C10000210080104906846FEF70AFF21460320DF
:101C200000F085FC050018D004F0AEF94FF47A748A
:101C3000B0FBF4F104FB110604F0A6F9B0FBF4F1DB
:101C40003246AFF2DC203DF0D7FC29469CA03DF0A7
:101C5000D3FCAFF2D4203DF0CFFC2846CCE72920BE
:101C6000CAE72DE9F04186B08C4F00900520019025
:101C700040200290002003904FF480600E466424C0
:101C800042F2107804906846FEF7D2FE00254146E5
:101C9000786B02E0786B491E07D310F0450FF9D03E
:101CA000410704D50325042008E0292508E0C007E2
:101CB00002D00125284601E040F2FF50FEF733FF35
:101CC0007DB90020FEF7D8FE002805DB0A2004F0CD
:101CD00085FA641ED7D103E014B1DEB1306019E09B
:101CE000292504F051F94FF47A74B0FBF4F104FBA8
:101CF000110604F049F9B0FBF4F13246AFF2983026
:101D00003DF07AFC294676A03DF076FCAFF29030AB
:101D10003DF072FC284606B04BE430B585B000209B
:101D200000900190029003904FF480600490684608
:101D3000FEF77EFE002542F2107401E0641E0CD016
:101D40008020FEF7E8FE0028F8D034B140F2FF50C2
:101D5000FEF7E9FE05B0284630BD0325FAE72DE978
:101D6000F04389B004F0AEFA644C6060644803F05C
:101D70009FFEA06001213020FEF782FD614C1822F9
:101D80004FF48851204600F0A5FE1A226115204626
:101D900000F0A0FE182204215B4800F09BFE1022F8
:101DA00015022946594800F095FE10220421584892
:101DB00000F090FE574E0420C6F81008C6F8145CD8
:101DC00001210002FEF74CFD01210220FEF748FD33
:101DD000FEF7D2FD00220E214F48FEF76DFA4FF0BC
:101DE000000980208DF800004C46CDF80490CDF815
:101DF0000890CDF80C90CDF810906846CDF814906E
:101E0000FEF7C7FD0120FEF775FE0320FEF7E8FD93
:101E10000120FEF7E2FD31208DF8180002208DF838
:101E200019008DF81A404FF001088DF81B8006A8A4
:101E3000FFF751FAC6F8145C322004F0CFF9C6F867
:101E4000105C322004F0CAF90020FEF750FE19F0B1
:101E5000BBF9FFF762FFB0B907A90020FFF701FF48
:101E600088B907A90798FFF7FCFE60B908A8FFF733
:101E7000C5FE40B9BDF820000004FFF78FFE10B981
:101E8000FFF710FD4AE052E07364696F5F726561AD
:101E9000645F63636372206572720A0000800140B0
:101EA00008E0FFFD53445F53656C656374446573DC
:101EB000656C656374206572723A25640A000000DF
:101EC0006D6D635F73656E645F72656C6174697676
:101ED000655F61646472206572723A25640A00006D
:101EE0006D6D635F73656E645F696F5F6F705F6375
:101EF0006F6E64206572723A25640A00000000204B
:101F00008C0504080010014000140140000C014041
:101F100000080140000001404404024038B900209C
:101F2000FFF717FC0120FFF7CAFB04001BD004F0E9
:101F30002BF84FF47A74B0FBF4F104FB110704F0B2
:101F400023F8B0FBF4F13A46AFF2E4503DF054FB15
:101F5000FFA03DF051FBAFF2D8503DF04DFB2046C5
:101F600004F03CF966E78DF80080CDF80490CDF8D8
:101F70000890CDF80C90CDF810906846CDF81490EC
:101F8000FEF707FD09B02046BDE8F08370B5F549BE
:101F900086B0084000D00120AA2141EA002000902C
:101FA0000820019040200290002003904FF48060B0
:101FB00004906846FEF73CFD05A90820FFF7CCFA1F
:101FC000050019D003F0E0FF4FF47A74B0FBF4F190
:101FD00004FB110603F0D8FFB0FBF4F13246AFF278
:101FE00078603DF009FB2946AFF20C103DF004FB90
:101FF000AFF274603DF000FB2846FDE52DE9F041AD
:10200000D94D686804F0F3F9DFF860834046FEF7C5
:102010008AFD40F21A3601213046FEF7F6FC012017
:10202000FEF703FD6421686804F090F948B303F0FB
:10203000ABFF4FF47A74B0FBF4F104FB110703F02B
:10204000A3FFB0FBF4F13A46AFF2E4603DF0D4FAFE
:10205000C7A03DF0D1FAAFF2D8603DF0CDFA002133
:102060003046FEF7D2FC3EF04BFAC649CA6A22F06F
:10207000F702CA6203F07AFC4046FEF754FD2920BD
:1020800028702878BDE8F0812DE9F047BE49BD4DA4
:10209000087800F10100C0B208706C6BEA6B04EACA
:1020A000020462020ED53EF02BFA4FF48001A963C0
:1020B00003F05CFCB549012081F82C00084619F0BA
:1020C000CDFA40E040F23A3914EA090F3FD0A64E6B
:1020D000E00501D5002019E003F056FF4FF47A78AF
:1020E000B0FBF8F208FB120703F04EFFB0FBF8F16B
:1020F0003A46AFF28C703DF07FFA2146A4A03DF045
:102100007BFAAFF284703DF077FA292030703EF010
:10211000F7F90446E86A20F0F700E8629E48016893
:1021200021F001010160E86B00F48000E863C5F86C
:1021300038904FF00000FEF778FC204603F016FCC4
:10214000706804F02FF9BDE8F04701F0B3BB401E02
:102150000870BDE8F0872DE9FF4F97B0064682482A
:10216000DDE92485269C806803F0AFFC4FF48050A5
:10217000FEF7D1FC4FF47A7A48B94FF40050FEF7DD
:10218000CAFC20B94FF40060FEF7C5FCA8B103F00B
:10219000FBFEB0FBFAF20AFB120703F0F5FEB0FB00
:1021A000FAF13A46AFF640003DF026FA7BA03DF04A
:1021B00023FAAFF634003DF01FFA6C48FEF7B3FC8B
:1021C000A0B2002102E04008491CC9B20128FAD19E
:1021D00005FB04F27848CDE90B0208014FF0000B33
:1021E0000D9016B1CDF838B001E002200E90012D0F
:1021F00004D1FF2C02D804200F9001E0CDF83CB0B0
:102200000120109005FB04F0C01C4FEA90098EB12C
:102210004FF00040189940EA01701A99119009B1E5
:102220004FF0806108431999012D40EA4120119037
:1022300036D039E04C48406804F0D9F8012140F22A
:102240002A30FEF7E2FB4948FEF76DFC524F0021B1
:102250003846FEF720F85948FEF74EF849488021E5
:102260008030CDE90008CDE904B14115CDE902B9CE
:102270000691C114CDE9071B4FF44051CDE9091B6C
:1022800069463846FDF7D4FF01213846FEF703F8CA
:102290000120FEF7CAFB0BA8FEF7F2FB0020B9E70E
:1022A000FF2C01D8204302E045F000610843119063
:1022B0003520129040201390002014904FF480603D
:1022C000159011A8FEF7B4FB16A93520FFF744F9C5
:1022D000070016D003F058FEB0FBFAF20AFB120B0F
:1022E00003F052FEB0FBFAF15A46AFF684103DF00F
:1022F00083F9394632A03DF07FF9AFF67C103DF00E
:102300007BF926B30BA8FEF7BBFB234F0021384611
:10231000FDF7C1FF2948FDF7EFFF1A488021803003
:10232000CDE900081020CDE902090020CDE9040123
:10233000890006918900CDE907104FF44051CDE99D
:10234000091069463846FDF773FF012146E04CE06D
:102350005344494FC9E8B1B8B3F5CABCBBAFCAA72B
:10236000B0DC00000080FF0000000020FFFFBF0085
:10237000646D615F73656E642074696D656F7574FB
:102380000A000000008001400E00002048080020E4
:10239000743A25780A000000440402406D6D635FC2
:1023A000696F5F72775F657874656E6465642062DB
:1023B0007573790A00000000FFFF0F0000F00010A5
:1023C0006D6D635F696F5F72775F657874656E646A
:1023D0006564206572723A2564200A003846FDF76C
:1023E0005AFFFFF70BFE07462EE070486421406855
:1023F00003F0ACFF40B303F0C7FDB0FBFAF20AFBF9
:10240000120703F0C1FDB0FBFAF13A46AFF6A8207F
:102410003DF0F2F8664F796B66A03DF0EDF8AFF64F
:10242000A0203DF0E9F8002140F22A30FEF7EDFA55
:102430003EF066F8F96A21F0F701F96203F096FAC6
:102440006248FEF770FB29270020FEF7EEFAD7B1AD
:1024500003F09AFDB0FBFAF20AFB120803F094FDB8
:10246000B0FBFAF14246AFF600303DF0C5F858A196
:1024700006B958A123462A4657A03DF0BDF8AFF64D
:1024800000303DF0B9F84948806803F042FB27B1BD
:102490004FF0FF301BB0BDE8F08F0020FAE77CB5AD
:1024A00001AB00930023072219461846FFF7FFF8F7
:1024B00004004FF47A7511D003F066FDB0FBF5F11E
:1024C00005FB110603F060FDB0FBF5F13246AFF6F7
:1024D00068303DF091F8214648A020E09DF80400C6
:1024E000002340F0020000938DF804000346072209
:1024F00000210120FFF7DBF8040016D003F044FDB3
:10250000B0FBF5F105FB110603F03EFDB0FBF5F164
:102510003246AFF6AC303DF06FF821463EA03DF0BC
:102520006BF8AFF6A4303DF067F820467CBD70B57F
:102530001F4A06460C46002542F21071506B02E01D
:10254000506B491E07D310F0450FF9D0410704D551
:102550000324042005E0292070BDC00705D0012414
:102560002046FEF7E0FA204670BDFEF781FAB04241
:1025700013D140F2FF50FEF7D6FA0020FEF77CFAA6
:1025800010F4604F03D0810405D5132070BD4FEACD
:102590001040208007E0410401D5102070BD0004E8
:1025A00001D50F2070BD284670BD0000000000203E
:1025B00000800140646D615F726561642074696DC3
:1025C000656F75743A253038780A0000FFFFBF0048
:1025D00077000000720000006D6D635F69775F65D2
:1025E000775F65787465726E646564206572723AAF
:1025F00025732C25642C25640A0000007364696F20
:102600005F656E61626C655F776964652065727293
:102610003A25640A000000007364696F5F656E61AB
:10262000626C655F7769646520657272313A256412
:102630000A000000F0B585B04FF41071EE483CF090
:10264000EBFBED48012580F83851294644F20C0097
:10265000FEF716F901210846FEF702F9E74C1822A9
:102660006902204600F036FA04221102204600F0EA
:1026700031FA03F027FEE2490860C0B300244FF4AA
:10268000E1300090ADF808400C20DE4EADF804407B
:10269000ADF80A00ADF80640ADF80C40694630468A
:1026A000FEF733FC01213046FEF79FFC40F2255730
:1026B000012239463046FEF7A9FC25208DF810008E
:1026C0008DF811508DF812408DF8135004A8FEF7C4
:1026D00002FE40F226613046FEF7CCFD3946304618
:1026E000FEF7C8FDC8492020086005B0F0BDFFE72F
:1026F00003F04AFC4FF47A74B0FBF4F104FB1105CB
:1027000003F042FCB0FBF4F12A46C0A03CF074FF99
:10271000C2A03CF071FFC8A03CF06EFFE5E7704737
:1027200070B50546C549B64C01E0491E02D3207C70
:102730000028FAD103F016F90246207C28B1104691
:1027400003F014F94FF0FF3070BD01202074BC4835
:10275000B0F800180906FBD5A0F804580020207432
:10276000104603F003F9284670BDA54910B5183985
:102770004FF04022D1E90203984207D24B691B5C1B
:10278000A2F80438401C8860002010BD4FF6BF70CE
:10279000A2F8000800200874086803F003FE012076
:1027A00010BD2DE9F04104460D0040D0F4B303F014
:1027B000D9F802464FF04020B0F800180906FBD5C2
:1027C0008F4E183EF5600025B560012074613074AD
:1027D000104603F0CBF8FFF7C8FF4FF4FA613068FA
:1027E00003F0B4FD04463574401C03D0D6E9020161
:1027F000884218D003F0C8FB4FF47A75B0FBF5F1AE
:1028000005FB110703F0C0FBB0FBF5F13A467FA0D2
:102810003CF0F2FED6E9022321468AA03CF0ECFE11
:1028200085A03CF0E9FE0020BDE8F081FFE74FF015
:10283000FF30F9E710B5724C8149D4E902029042A9
:1028400007D26269125CA1F80428401CA060002035
:1028500010BD4FF6BF70A1F80008002240F22661BB
:102860006848FEF7D3FB00202074206803F09AFD2F
:10287000012010BD2DE9F04104460D0049D0F4B30C
:1028800003F070F802466E48B0F800180906FBD550
:102890005B4EF5600025B560012074613074104610
:1028A00003F064F8574C40212046FEF7C1FC01229A
:1028B00040F226612046FEF7A9FBFFF7BBFF4FF46D
:1028C000FA61306803F042FD04463574401C03D0C1
:1028D000D6E9020188421AD003F056FB4FF47A750C
:1028E000B0FBF5F105FB110703F04EFBB0FBF5F172
:1028F0003A4646A03CF080FED6E9022300E008E01C
:10290000214657A03CF078FE4BA03CF075FE00201D
:102910008AE74FF0FF3087E7394A1832516D502966
:1029200001D3002003E000785054506D401C5065E6
:1029300052480068002801D003F034BD70472DE9EB
:10294000F041304F002440F22556512522463146B1
:102950003846FEF75BFB2A49002018310855641CF5
:10296000AC42FBD3486531463846BDE8F041012210
:10297000FEF74CBB38B500253DF08CFD3049B1F871
:102980000048A00606D5B1F804088DF80000684696
:10299000FFF7C2FF60060BD51948007C18B1FFF79E
:1029A00049FF054604E040F226611648FEF762FC46
:1029B00028463DF077FD38BD10B500243DF06AFD96
:1029C0004FF04022B2F80018880601D5B2F804088A
:1029D00048060CD50A481838007C18B1FFF7C5FE28
:1029E000044604E040F226612548FEF743FC2046F9
:1029F000BDE810403DF056BD7808002000080140B9
:102A0000D00A00200038014004E100E05B453A2094
:102A100025642E253033645D2000000075617274DA
:102A20005F696E6974207379735F73656D5F6E653E
:102A30007731206572720A000D0A0000A08601003D
:102A40000030014075617274325F73656E64206599
:102A500072723A25642C25642C25640A000000005B
:102A600075617274315F73656E64206572723A25A8
:102A7000642C25642C25640A0000000078020020E4
:102A8000004800406F48704920F00300091A04F024
:102A9000BCB8704710B54FF44070FEF717FC6B4898
:102AA0004FF47A710068B0FBF1F0B0F1807F0ED284
:102AB00020F07F414FF0E020491E4161644AF0213F
:102AC00011704FF0000181614FF00701016110BDED
:102AD00003F05ABA08B5ADF800108DF803200321B1
:102AE0008DF802106946FDF784FC08BD01213C20E9
:102AF000FDF7C6BE70B55748446A4FF08071416219
:102B000003F042FA4FF47A75B0FBF5F105FB1106BC
:102B100003F03AFAB0FBF5F132464FA03CF06CFD01
:102B200051A03CF069FD52A03CF066FD002C13DA88
:102B300003F02AFAB0FBF5F105FB110603F024FAC5
:102B4000B0FBF5F1324644A03CF056FD49A03CF004
:102B500053FD47A03CF050FD600013D503F014FA7C
:102B6000B0FBF5F105FB110603F00EFAB0FBF5F131
:102B7000324639A03CF040FD41A03CF03DFD3CA078
:102B80003CF03AFDA00013D503F0FEF9B0FBF5F1DF
:102B900005FB110603F0F8F9B0FBF5F132462EA063
:102BA0003CF02AFD39A03CF027FD31A03CF024FD8B
:102BB000E00013D503F0E8F9B0FBF5F105FB1106D1
:102BC00003F0E2F9B0FBF5F1324623A03CF014FD2E
:102BD00031A03CF011FD26A03CF00EFD200113D5E4
:102BE00003F0D2F9B0FBF5F105FB110603F0CCF9C7
:102BF000B0FBF5F1324618A03CF0FEFC29A03CF0F9
:102C0000FBFC1BA03CF0F8FC600113D503F0BCF901
:102C1000B0FBF5F105FB110403F0B6F9B0FBF5F1DB
:102C200022460DA03CF0E8FC21A03CF0E5FC10A001
:102C30003CF0E2FC002070BD10B5FFF757FFBDE887
:102C4000104027E72B2F00200000012088050408F2
:102C500023ED00E0001002405B453A2025642E255C
:102C60003033645D2000000072657365743A0000C3
:102C70000D0A00006C6F7720706F7765720A000094
:102C800077696E6477207764670A0000696E64650F
:102C900070207764670A0000736F66742072657332
:102CA00065740A00706F722072657365740A0000A3
:102CB000757365722072657365740A002DE9F041C1
:102CC000FB4D06460F4601212846FEF7C5F80128B0
:102CD00002D12846FEF751F8002414E002212846CC
:102CE000FEF7BAF80028F9D0FF212846FEF743F88E
:102CF00001212846FEF7B0F80028F9D02846FEF753
:102D00003CF83055641CBC42E8DB0020BDE8F08193
:102D100010B50022E74B07E0B3F80848A407FBD53D
:102D2000845CA3F80C48521C8A42F5DBB3F808080F
:102D30008007FBD5B3F808080006FBD4002010BDBF
:102D400030B5DD4C02256561FFF7E2FF256100200B
:102D500030BDF0B5D84D022416461F466C61FFF712
:102D6000D7FF39463046FFF7D3FF2C610020F0BD76
:102D70002DE9F041D04D022416461F466C61FFF745
:102D8000C7FF012032F060FE39463046FFF796FF5C
:102D90002C610020BAE770B5C84D06462C6804F5D2
:102DA0007A64304600F09BFA002807DBC0071CD08D
:102DB0000A2003F013FA2868A042F2D303F0E4F8E3
:102DC0004FF47A74B0FBF4F104FB110503F0DCF866
:102DD000B0FBF4F12A46BAA03CF00EFCBCA03CF0DB
:102DE0000BFCC0A03CF008FC012070BD10B583892D
:102DF000F82404EBC30321FA03F353708389F0240E
:102E000004EBC30321FA03F393708389E82404EBF2
:102E1000C30321FA03F3D3708089E02303EBC000DE
:102E2000C140117110BD2DE9F05FAF4C0D46064653
:102E300001446068814203D96FF01500BDE8F09F3E
:102E4000DFF874820127C8F810706FF0040BA842F5
:102E500029D12046FFF79FFF70B9204600F069FA9C
:102E6000C720E073012104F10F00FFF769FF20E0A4
:102E70002046FFF790FF18B1C8F814705846DDE7F8
:102E8000204600F056FA84F80F905246314620460C
:102E9000FFF7ACFFA1895046491CFFF751FF20897D
:102EA00006442D1A03E04FF0200904F10F0A002D0B
:102EB000DEDC0020C8F81470C0E72DE9F0418A4C30
:102EC00007460D0090460AD061687819884202D9F9
:102ED0006FF015001AE72046FFF75DFF08B10120EB
:102EE00014E70320E07304F10F021646394620462A
:102EF000FFF77CFFA1892B46491C42463046FFF76D
:102F000037FF002002E72DE9FC47804691460F4637
:102F1000754C764804F051F805004FF0FF3630D07C
:102F20002046FFF738FF03208DF800006A4641462F
:102F30002046FFF75BFFA1893B46491C2A466846AD
:102F4000FFF716FF3A46294648463BF0C0FFD8B186
:102F500003F01AF84FF47A74B0FBF4F104FB110794
:102F600003F012F8B0FBF4F13A4655A03CF044FBF4
:102F70005FA03CF041FB5BA03CF03EFB284603F029
:102F80006DFE3046BDE8FC87284603F067FE002052
:102F9000F8E72DE9F84F0F004749534D4FF0010B6B
:102FA000814692464FF00008C1F810B04FF0FF3450
:102FB00008D0696809EB0700884203D82846FFF764
:102FC000EAFE08B1A04642E0284600F0B2F902202D
:102FD000E87305F10F02494628460092FFF706FF05
:102FE0006889411E01EA0901CA19824207D8A989E4
:102FF0003B46491C52460098FFF7ABFE3DE0441AA1
:10300000A9892346491C52460098FFF7A2FE19E001
:1030100068893E1BB04200D2064609EB04012846EF
:10302000009AFFF7E3FE2846FFF7B5FE284600F0BA
:1030300080F9A9890AEB0402491C33460098FFF77E
:1030400088FE3444BC42E3D3B8F1000F15D002F03F
:103050009BFF4FF47A74B0FBF4F104FB110502F00E
:1030600093FFB0FBF4F12A4615A03CF0C5FA26A068
:103070003CF0C2FA1BA03CF0BFFA0F49C1F814B0F3
:103080004046BDE8F88F38B5174C00200090204628
:10309000FFF781FE08B1002038BD9F20E0730323B5
:1030A0006A46012104F10F00FFF762FE009838BD67
:1030B000003800400030004000100140680000204F
:1030C0005B453A2025642E253033645D20000000E6
:1030D000776169745F74696C6C5F72656164792093
:1030E000657272000D0A0000400B0020A205040862
:1030F000636865636B5F666C6173685F646174616C
:1031000020657272000000006D3235703830207713
:1031100072697465206572720000000070B58A4B98
:103120009B7B23B1BDE8704000F50020C5E602F0AE
:103130002BFF4FF47A74B0FBF4F104FB110502F09D
:1031400023FFB0FBF4F12A46AFF28C003CF054FAB6
:103150007EA03CF051FAAFF274003CF04DFA4FF013
:10316000FF3070BD2DE9F04177487D4E4FF47A7401
:10317000807B4FF0FF35B8B14FF400273146384619
:10318000FFF751FE08B302F0FFFEB0FBF4F104FBC1
:10319000110602F0F9FEB0FBF4F13246AFF2E000A6
:1031A0003CF02AFA6FA027E002F0EEFEB0FBF4F14B
:1031B00004FB110602F0E8FEB0FBF4F13246AFF278
:1031C00000103CF019FA61A016E06A4A3146384610
:1031D000FFF7DFFE002816D002F0D6FEB0FBF4F1B8
:1031E00004FB110602F0D0FEB0FBF4F13246AFF260
:1031F00030103CF001FA60A03CF0FEF9AFF21C1078
:103200003CF0FAF9284681E5F0B585B018214E4822
:103210003BF002FE4C4C0320A0814FF480502081F3
:10322000001160810120A07300056060564802F023
:103230003FFC01218D0320602846FDF731FB534EF2
:10324000102202213046FFF745FC514F1822691029
:103250003846FFF73FFC1A2229463846FFF73AFC6A
:103260006D00182229463846FFF734FC1022012150
:103270003046FFF72FFC474805604FF002003061F1
:103280004FF00005ADF800504FF48270ADF8020029
:10329000ADF808504FF400703F4EADF80650ADF851
:1032A0000E50ADF80A00ADF80450ADF80C50694668
:1032B0003046FDF785FC01213046FDF714FDFFF790
:1032C000E2FEA0F5A211EF3903D0A573681E05B088
:1032D000F0BD0020FBE750212F48FDF7DCBD7CB599
:1032E00005208DF80000012301AA19466846FFF762
:1032F0003FFD041E1ADA02F047FE4FF47A75B0FB68
:10330000F5F105FB110602F03FFEB0FBF5F1324688
:10331000AFF254203CF070F9214620A03CF06CF94B
:10332000AFF240203CF068F920467CBD9DF80400D7
:103330007CBD08B506208DF8000000231A46012147
:103340006846FFF715FD08BD400B0020666C6173F1
:1033500068206E6F7420617661696C61626C6500D3
:1033600000E70300666C6173682065726173652015
:1033700065727200540D0408666C61736820777280
:103380006974652065727200B1050408001001407F
:10339000000C0140100C0140003800406572726F53
:1033A000722025642072656164696E672053520A39
:1033B000000000000146002002E0491C401CC0B291
:1033C0000A78002AF9D1704770B506460D461446B2
:1033D000FF48807808B1112009E03378012B09D02B
:1033E000022B07D0032B05D0042B03D00120107033
:1033F000002070BD02F0B6FA034630692860FFF77E
:10340000D9FF0546184602F0B1FA00202070284680
:1034100070BD70B50546EE480E461446807808B17A
:10342000122009E02B78012B08D0022B06D0032BA9
:1034300004D0042B02D00120107070BD02F092FA6B
:103440002E6102F093FA0020207070BD70B510F864
:10345000384F8578467808E00319DA7AB243DA7291
:1034600002D1827AAA438272091D08680028F3D12A
:1034700070BD70B502F076FAD54C0546A07898B9C3
:10348000E07888B900F004FCD248627950F8221044
:10349000A1622079824207D0C86B401CC863E068F3
:1034A000401CE06002F075FA2846BDE8704002F06A
:1034B0005DBA70B5C64D0022296AC1E907200FE048
:1034C0002C6A01F10B0214F8383F64789E5C2643A5
:1034D0009E542B6A8A7A93F83A301A438A72001DF6
:1034E00001680029ECD1286AB94B90F838103433C0
:1034F00090F839405A5CA2435A5404D190F83A10DB
:10350000A8798843A87170BD2DE9FF5F4FF00009CD
:10351000DDF83880C1F8009000980D4616464FF04F
:10352000010B01680BE00978012906D0022904D0BB
:10353000032902D088F800B00EE050F8041F0029DB
:10354000F1D1A348817809B1022103E0A048C078F5
:1035500030B10D2188F80010002004B0BDE8F09FC4
:1035600002F000FADDF800C0002382461F4619462B
:10357000DCF8004037E02078012811D0022818D06C
:10358000032801D050467BE0208930B1401E2081C5
:1035900010C5012346F8049B1EE041F0010120E024
:1035A000606818B101C6C4F8049013E041F002014C
:1035B00017E06068C28A92B10269131D0361126844
:1035C00004C6836802699A4201D142680261C28AD4
:1035D000521EC28210C501237F1CBFB201E041F020
:1035E00004015CF8044F002CC5D1012B20D0784891
:1035F00041F08001006A00F13000027942EA0102E4
:10360000027180F80590039901600098FFF751FF5F
:10361000504602F0ABF9FFF72CFF02F0A3F9844605
:103620006B48006A90F8351059B1022912D108E0B0
:103630004C465046C5F8009002F098F988F80040D2
:1036400040E0C46924B1E5E801497F1CBFB204E051
:1036500080F835B00099FFF7F9FE5D4A116A91F8DC
:10366000350028B10228C6F8009018D00A2117E0CA
:10367000207801280ED002280CD0032807D06046FD
:1036800002F074F9C5F8009088F800B01AE0C6F8A6
:10369000009001E0486A306088F8009002E00E2156
:1036A00088F80010106A00F11C0080F8189080F86B
:1036B0001990C0F80090C0F80490C0F808906046D7
:1036C00002F054F9384648E77CB5424D002469467B
:1036D000204601F049FC58B955F8241041B10129A0
:1036E00006D0D1E9020200EB820088640198C86428
:1036F000641CE4B2202CEAD97CBD354C02E01420D5
:1037000001F012FD60780028F9D06421606900257D
:10371000B0FBF1F0606118B92570FF2001F055FC95
:1037200002F020F9E169C4E9061502F01FF9D4E9B5
:103730000510B0FBF1F0C0F16400207002F097F8C2
:10374000FFF7C2FF0A2001F0EFFCE9E7204C02F08E
:1037500009F9E169491CE16102F008F902F084F815
:10376000F5E7002203E0491E00F8012B89B2002989
:10377000F9D1704730B587B002F06CF8144C0023D3
:103780002363A370E3702372E371E360E361A361D9
:1037900063616370A37104F134011846401CC0B228
:1037A00001F8013B0528F9D3237163710948A3622D
:1037B0004FF4B86184302362FFF7D3FF84210548BA
:1037C000FFF7CFFF0348843000F15C02002103E0E3
:1037D0000C00002098100020FFA505654261491CDF
:1037E0005C305C32C9B20F29F1D3FBA143610165A2
:1037F000FA48E36260624FF47071A0F2C450FFF7C0
:10380000B0FFF748002100F114020370F2A5056132
:103810004260491C1430143289B22F29F5D3037049
:10382000EDA143600161EE48206100F0E5FC00F08D
:103830006EFF002302AC0322194620200FC4E94B7F
:103840004FF6FF72CDE90023E64A03467C320021A1
:10385000AFF2071001F0DBF906AAE3A1202001F086
:1038600022FB002302AC0322194640200FC4E24B86
:103870004FF6FE72CDE90023DA4A1F23121F002102
:10388000AFF2891001F0C3F906AADCA11F2001F0F4
:103890000AFB01F052FF07B0BDE8304001F0DEBF87
:1038A000DA49C879012804D18878FF2801D2401C60
:1038B0008870704770B5D54CE079012823D102F0AB
:1038C00051F8A178054621B1491E11F0FF00A07002
:1038D00014D1E07890B900F0DBF9C2496079803109
:1038E00051F82010A1622279904207D0C86B401C89
:1038F000C863E068401CE06002F050F82846BDE86C
:10390000704002F033B870BD10B5C04CE0790128AA
:103910000CD102F027F8A17821B9E178FF2901D272
:10392000491CE170BDE8104002F020B810BD10B590
:10393000B64CE079012813D102F014F8E17831B1E6
:10394000491E11F0FF01E17001D1A17819B1BDE864
:10395000104002F00BB802F009F8BDE8104088E50D
:1039600010BD10B5A94CE07900280DD100F090F9F8
:103970009C4960798031207151F82000A06220625A
:10398000BDE8104001F0F5BF10BD10B5022001F0F8
:10399000CBFB01F0E7FF9D4C0021E16101F0E6FF68
:1039A0000A2001F0C1FB01F0DDFFE1696161012145
:1039B0006170BDE8104001F0D9BF2DE9F04101F080
:1039C0008FFF01F0CFFF914D296B491C296301F056
:1039D000CDFFE879012840D1687A01264FF0000830
:1039E00028B1012839D0022803D085F80980EC6A73
:1039F0002FE06E72FBE701F0B5FF216B31B3491E7A
:103A0000216323D194F8341011F0370F06D021F040
:103A1000370184F8341084F8356001E084F835808B
:103A200094F83410090711D404F13804AA79A17864
:103A300041EA0201A971754A217802F134026778DE
:103A4000535CA4F1380443EA07035354646901F05A
:103A50008DFF94F836002028CDD1BDE8F08140F2EA
:103A600021107047704710B590F8382090F8394011
:103A70008B18DA7AA243DA7204D18A7A90F83A0083
:103A800082438A7210BDF0B505460F46807A6049C0
:103A9000085C05EB0004E47A095D01EBC001CEB2DD
:103AA000504901F1800151F826404FF0000104F126
:103AB00024042760E160217C21EA020121746374FF
:103AC000A4F1240409070BD4504994F83A208B79C7
:103AD0001A438A71343194F839300A5C1A430A5413
:103AE00029462046FFF7BFFF216A19B12046FFF79C
:103AF000ADFCE5613046F0BD30B5444B00F10B0242
:103B0000196A41F81C0F0C7F497FA55C0D43A55431
:103B1000196A827A01F138018C7842EA04028272D1
:103B2000087803F134044D78225CA1F13801AA43EE
:103B3000225404D191F83A1098798843987130BD95
:103B4000002282720B301146491CC9B200F8012BC9
:103B50000529F9D3704705E011F8013B521E00F822
:103B6000013B92B2002AF7D170472DE9FF5F05466D
:103B7000DDE90EBA0E469046994601F0F3FE234F5A
:103B80007C6A44B361691C34796201F0EFFE44F849
:103B90001C6CA5760026267666766661A4F1140074
:103BA00044F818ACA0E80009109824F80C0CEA08B6
:103BB00024F80A9CE67705F007000123227703FA30
:103BC00002F1E076A1778340637726606660E66065
:103BD000A66026621EE057E03F0000001C11002096
:103BE000580B00201810002075432F4F532D4949C2
:103BF0002049646C65000000180F002075432F4FAA
:103C0000532D494920537461740000000C000020BA
:103C1000BD050408A6626662AFF24400E662C4E92C
:103C20000C60A4F11C04304604EB8001401C4E657E
:103C300010F0FF00F8D0204601F050FE204601F0C1
:103C40000EFE01F08FFE0146174840F82540F86A45
:103C5000C4E9050600B18461FC6204F13804BA7954
:103C6000A078124B40EA0200B871207864781A5CA0
:103C700042EA04021A54387A00F101003872084608
:103C800001F074FE002068E401F070FE422064E45C
:103C9000064A0749343A054B9079085C1B5CC95CBD
:103CA00001EBC000507170479810002040000020C8
:103CB000BD0504082DE9F041054600780F4614467D
:103CC0001E46052804D0012018700020BDE8F081B0
:103CD00014F0800002D022F08004012080460020F1
:103CE000307001F03FFE7021FCB1012C23D0022C7A
:103CF00008D0032C11D001F039FE00246F20307061
:103D00002046E3E7AC6822463C40BC4209D01CE0B8
:103D1000A24318E001F02AFEF2E7AC6822463C40DC
:103D200013D0B8F1010FF5D1F2E7AA6827EA02042F
:103D3000BC4204D009E0AA6837EA020405D0B8F111
:103D4000010FE7D12243AA60E4E73170E2E770B5E2
:103D50000646FB480D46007818B110200870002078
:103D600070BD01F0FFFDF7490C6864B162680A603C
:103D700005212170A6600026F3A16660E16001F0D4
:103D8000F5FD2E7003E001F0F1FD72202870204651
:103D900070BDD0E9001200232AB1116001B14A6060
:103DA000806883627047C26800295160F8D04B6018
:103DB000F6E710B502468068002300F12C00C0E948
:103DC0000013017A31F0200101724372A0F12C003E
:103DD00005D000241046FFF7DCFF204610BDDB496C
:103DE00000F1380083780C7843EA04030B70017803
:103DF000D74B40785C5C44EA00045C544FF001040B
:103E0000E8E72DE9F05F0446CD488846164600787D
:103E100008B10F2003E02078052802D0012010709F
:103E20001AE001F09FFD656881460DB1012700E0B1
:103E30000027DFF810B34FF0000AB8F1000F06D0EA
:103E4000B8F1010F1FD001F091FD072003E037B159
:103E500001F08CFD492030702046BDE8F09FBAA0EB
:103E6000E06084F800A0DBF80010C4E9011A5546B0
:103E70004846CBF8004001F079FD18E000212846C3
:103E8000FFF797FF2D68002DF8D1AFA0E06084F810
:103E900000A0DBF80010C4E9011A55464846CBF8EB
:103EA000004001F063FD012F01D1FFF7E2FA357008
:103EB0000020D2E72DE9F0410746A1480E461446FE
:103EC000007810B1112010700AE001F04BFD05469A
:103ED0003878052806D0284601F048FD01202070DA
:103EE0000020F3E6F8683060FFF764FA06462846DB
:103EF00001F03CFD002020703046E7E670B5054635
:103F00008F480E461446007810B11220107070BD14
:103F100001F028FD2978052903D001F027FD0120B3
:103F200003E0EE6001F022FD0020207070BDF0B5CE
:103F3000884E059F346804F12804257B45F0200550
:103F400025734FF000056573A76044F828190A61CE
:103F50000B758C604268C860C1E90025426802B1F7
:103F60005160416030687A4B90F8381090F83940D1
:103F70005A5CA2435A5405D190F83A20734801780C
:103F800091430170F0BD2DE9FF4F04466C4889B0A4
:103F90000F460078169D914608B1022096E06E48C3
:103FA000007808B10D2091E02078052801D001208B
:103FB0008CE012F0800F03D029F08009012600E088
:103FC000002601F0CFFC0790DFF888B15FEA090016
:103FD0004FF0000A1ED0012833D0022808D0B9F1D2
:103FE000030F10D0079801F0C1FC00206F215AE0A8
:103FF000A06800EA07018846B94228D1012E13D1F2
:1040000020EA08000FE0A06800EA07015FEA010863
:10401000F4D11CE0A06827EA00018846B94216D115
:10402000012E3CD000E0A0600846DBF80010C8621A
:10403000079801F09BFC85F800A040460DB0BDE854
:10404000F08FA06827EA00015FEA0108E8D10C9B25
:1040500000934B463A4601A92046FFF768FF0798B0
:1040600001F084FCFFF705FA01F07CFC8446DBF8E4
:104070000000D84690F83570BFB180F835A054469E
:1040800001A8FFF786FED8F8000080F834406046AB
:1040900001F06CFC0020022F04D00A2103E040EA6A
:1040A0000800C0E70E212970C8E7C76A012E16D1A3
:1040B0005FEA090010D001280ED0022809D0B9F11A
:1040C000030F06D0604601F051FC6F2028700020DD
:1040D000B4E7A068B84301E0A0683843A060604638
:1040E00001F044FC85F800A03846A7E710B501F0C0
:1040F00039FC18490968CC6A01F038FC204610BD2B
:104100002DE9F041054600780E4614461F46052865
:1041100002D0012018702EE001F024FC80462CB162
:10412000012C06D001F022FC712023E0A868B043E6
:1041300001E0A8683043A86000266C6837E0000002
:104140000E000020480000203F0000001200002068
:10415000400000202C0000200F000020207DA0B196
:10416000012819D0022808D003280AD0404601F0BF
:10417000FDFB6F2038700020A8E5A9682069014088
:1041800007E0A9682069014009E02169AA6808469A
:104190009143884204D009E02169A868814329B18C
:1041A0002046FFF706FE012800D101262468002CD6
:1041B000D4D1404601F0DAFB012E01D1FFF759F9C5
:1041C00001F0D0FBAC6801F0D1FB00203870204634
:1041D0007CE570B5054600780C46052803D0012023
:1041E0000870002070BD01F0BDFBAD6801F0BEFBA2
:1041F00000202070284670BD10B550210D48FFF7F3
:10420000B0FA0C48002100F110020B460370AFF227
:10421000C804C4604260491C1030103289B20429BD
:10422000F4D30370AFF2E0014360C160024901487A
:10423000086010BDDC1600204800002070B505465F
:1042400000780C46022803D001200870002070BDC1
:1042500001F088FB6A680346D08A70B11169081DB5
:1042600010610D68D18A491ED1829168884201D1BE
:10427000506810610020207002E01F20207000258F
:10428000184601F073FB284670BD2DE9F041064643
:10429000FB488846007810B10020BDE8F08101F0AD
:1042A00061FBF84F3C680CB16168396001F05EFB5E
:1042B00014B301F057FBF4490D68BDB12A680A60D8
:1042C00001F054FB06EB8800C5E90160EE602E6149
:1042D000A5F814800020E882022121702081EBA043
:1042E000656020612046FFF72BFC05E039686160BE
:1042F0003C6001F03BFB00242046CEE72DE9F0476F
:104300000446007888461546022801D0012003E0C3
:10431000DB48007810B10F2010701DE001F022FB87
:104320000746A07A08B1012600E000265FEA0800EF
:10433000DFF85483DFF84C934FF0000A06D00128D1
:104340002AD0384601F012FB072004E03EB138467F
:1043500001F00CFB492028702046BDE8F087CBA077
:1043600020616068D8F8002056460260C8F8000056
:1043700084F800A0D9F800106160A4F808A03846BD
:10438000C9F8004001F0F2FA2E7023E00023042265
:1043900019462046FFF777FBA07A0028F6D1BBA08C
:1043A00020616068D8F800200260C8F8000084F836
:1043B00000A0D9F800206260A4F808A0D0463846D2
:1043C000C9F8004001F0D2FA012E01D1FFF751F8EF
:1043D00085F800800020C0E710B5044601F0C2FA5D
:1043E00061684A68CA600A610022CA8201F0BEFAA6
:1043F000002010BD2DE9F047064600788946144696
:10440000022801D0012008E09D48007808B1022070
:1044100003E09F48007818B10D20107000209CE741
:1044200001F0A0FA054670680027C18A89B10269C7
:10443000111D01611668C28A521EC28282689142B1
:1044400001D141680161284601F090FA2770304699
:1044500083E7DFF84082D8F8000010F8341F41F0FD
:1044600004010170477040F8049C3046FFF744FB9C
:10447000284601F07BFAFEF7FCFF01F073FA814653
:10448000D8F8000090F8351039B1022908D031462B
:10449000FFF7E9FA00250A2004E0456A277002E0E8
:1044A00000250E202070D8F80010484601F11C01AC
:1044B0000F764F760F604F608F6001F057FA2846F5
:1044C0004BE72DE9F0410F460546017801201646DD
:1044D000022901D0107028E001F044FA8046A87A41
:1044E000F0B10024012F0FD002230422002128461E
:1044F000FFF7C9FA0124404601F038FAFEF7B9FF88
:104500000E2030702046C8E60223042200212846EF
:10451000FFF7B9FA641CA87AE4B20028F4D1EAE7FC
:10452000404601F023FA002030700020B5E670B557
:10453000044600780E46022801D0012070BD01F02B
:1045400011FA0546A07A58B10023042231462046CC
:10455000FFF799FA284601F009FAFEF78AFF19E0F9
:104560006068C18A828A914204D3284601F0FEF92C
:104570001E2070BDC1680A1DC2600E60C18A491C40
:10458000C182D0E902128A4201D14168C160284645
:1045900001F0ECF9002070BD70B5044600780E46BD
:1045A000022801D0012070BD01F0DCF90546A07A97
:1045B00058B10023042231462046FFF764FA28460A
:1045C00001F0D4F9FEF755FF18E06068C18A828ACD
:1045D000914204D3284601F0C9F91E2070BD4268FB
:1045E0000169914201D181680161091F01610E6079
:1045F000C18A491CC182284601F0B8F9002070BD6B
:104600002DE9F041074600780D461446022801D0F6
:10461000012042E601F0A6F90646B87AD0B1E007DB
:1046200009D00023042229463846FFF72CFAB87A2D
:104630000028F6D105E00023042229463846FFF77A
:1046400022FA304601F092F9600701D4FEF711FF1B
:10465000002022E67B68D88A998A884204D33046B3
:1046600001F084F91E2018E6A00715D559681869CD
:10467000884201D198681861001F1861056015E033
:104680000E0000201C0000204C0000203F00000015
:104690000F0000202C000020D868011DD9600560A3
:1046A000D3E90201814201D15868D860D88A401C00
:1046B000D882304601F05AF9CAE72DE9F0410746A1
:1046C00000780E46022801D00120E6E501F04AF903
:1046D0000146B87A707307F10B0406F10805002053
:1046E000401C14F8012BC0B205F8012B0528F7D3A4
:1046F0007868C28A0AB1026912683260C28AB280DE
:10470000808AF080084601F031F90020C5E510B537
:104710004FF4C0710948FFF724F80848002100F160
:10472000180240F8182B491C183289B20F29F8D307
:104730000021016002490148086010BD2C170020CB
:104740004C00002070B505460078032801D00020F9
:1047500070BD01F007F92C890CB1611E298101F0AF
:1047600005F9204670BD70B50546B548007808B11A
:10477000002070BD01F0F6F8B2490C680CB1626817
:104780000A6001F0F3F84CB103202070258100206D
:104790006060ADA020612046FFF7D2F9204670BDD1
:1047A0002DE9F0470446007888461546032801D0D5
:1047B000012003E0A248007810B10F2010701BE028
:1047C00001F0D0F80746A07A08B1012600E00026E3
:1047D0005FEA0800DFF86C924FF0000806D001286D
:1047E00024D0384601F0C2F8072004E03EB1384634
:1047F00001F0BCF8492028702046BDE8F08792A05F
:10480000206184F80080D9F800106160A4F8088065
:1048100046463846C9F8004001F0A8F82E701CE062
:104820000023012219462046FFF72DF9A07A00281F
:10483000F6D185A0206184F80080D9F8002062605C
:10484000A4F808803846C9F8004001F08FF8012E1E
:1048500001D1FEF70EFE85F800800020CDE72DE99E
:10486000F0470546007889461446032801D0012008
:1048700008E07348007808B1022003E0734800782C
:1048800010B10D201070B8E701F06CF806462889C9
:10489000002730B1401E2881304601F067F82770AC
:1048A000ABE7DFF8AC81D8F8000010F8341F41F016
:1048B00001010170477040F8049C2846FFF71CF97D
:1048C000304601F053F8FEF7D4FD01F04BF80646F0
:1048D000D8F8000090F8351031B1022906D02946E9
:1048E000FFF7C1F80A2002E0277001E00E202070D7
:1048F000D8F8000000F11C00077647760760476093
:104900003046BDE8F04701F031B82DE9F0410F46DF
:104910000546017801201646032901D0107029E0D0
:1049200001F020F88046A87AF8B10024012F10D0B9
:104930000223012200212846FFF7A5F80124404662
:1049400001F014F8FEF795FD0E2030702046BDE80A
:10495000F0810223012200212846FFF794F8641C0D
:10496000A87AE4B20028F4D1E9E7404600F0FEFF5F
:10497000002030700020EAE770B504460078032874
:1049800001D0012070BD00F0EDFF0546A07A58B1BE
:104990000023012219462046FFF775F8284600F04B
:1049A000E5FFFEF766FD09E020894FF6FF718842BA
:1049B00006D2401C2081284600F0D8FF002070BDA0
:1049C000284600F0D3FF322070BD2DE9F0410646A5
:1049D00000780F46032801D00120B8E700F0C2FF9D
:1049E0000146B07AF871BC1C06F10B050020401C92
:1049F00015F8012BC0B204F8012B0528F7D3308934
:104A00003880084600F0B2FF0020A0E770B50446E9
:104A100000780E461546032802D00120107070BDA4
:104A200000F0A0FF00212970218939B9A17A29B1AC
:104A300049212970BDE8704000F098BF2681F9E750
:104A40000E0000201C0000203F0000000F0000208E
:104A50002C0000202DE9F05F04468A4600F082FF1A
:104A60008346FF4850F82A1029B1584600F07EFFCF
:104A70002820BDE8F09FFF2C03D1FA49096891F87E
:104A8000364050F8241011B3012925D04FEADA023C
:104A9000012303FA02F50AF0070E03FA0EF303F0FE
:104AA000FF09002340F8243040F82A1011F8384F4D
:104AB000ED4B05F0FF084D78185D8F78A1F13801B6
:104AC000284219D0A843E94E18550AD00CE05846A0
:104AD00000F04CFF2920CCE7584600F047FF432068
:104AE000C7E73078B8433070307840EA080030705B
:104AF000985C40EA09009854C86980B10619F37AB5
:104B0000AB43F37202D1837ABB438372837A8618F4
:104B100043EA08038372F07A40EA0900F0720B6AF4
:104B2000BBB11868A8B100EB040C9CF80B60AE4355
:104B30008CF80B6002D1867ABE438672867A1B1D82
:104B400046EA080686721044C67A46EA0906C67224
:104B5000E7E781F836A081F8382081F837E081F85E
:104B60003A8081F83990584600F000FFC04800783C
:104B7000012801D1FEF77DFC00207AE72DE9FE43F4
:104B800006460F4690461C4600F0ECFEB9490978EF
:104B900021B100F0EBFE3C20BDE8FE83B04D55F89E
:104BA000241019B100F0E2FE2820F5E7012145F8B4
:104BB000241000F0DBFE002342463946304600F068
:104BC00058FE00231A4619468DE80E00014620467D
:104BD000FEF7CBFF060008D000F0C4FE002145F828
:104BE000241000F0C3FE3046D6E7A1480078012823
:104BF000F9D1FEF73EFCF6E7D30707D0920705D5BB
:104C00000022002902D004C0491EFAE770472DE9AE
:104C1000FF4F83B08146DDE914868A4693461C46E1
:104C2000119F00F09FFE9349097829B100F09EFE84
:104C30003C2007B0BDE8F08F894D55F8241019B11C
:104C400000F094FE2820F4E7012145F8241000F03C
:104C50008DFE424638461299FFF7CEFF43465A462C
:104C60005146484600F005FEDDE912128DE80601C6
:104C700001463A462046109BFEF777FF070008D012
:104C800000F070FE002145F8241000F06FFE384659
:104C9000CFE755F8240080F858607548007801285F
:104CA000F5D1FEF7E6FBF2E72DE9F047054671483E
:104CB000007810B14020BDE8F087202D05D000F02D
:104CC00051FE0646FF2D02D005E03E20F3E7654881
:104CD000006890F83650DFF8889159F825405CB1AB
:104CE000012C0ED094F838105F4A94F83930505C9B
:104CF000984350540AD00FE0304600F037FE43206E
:104D0000D9E7304600F032FE3D20D4E7574894F80A
:104D10003A20017891430170E16911B12046FEF714
:104D2000A2FE216A11B12046FEF790FBA06A08B1ED
:104D3000FFF72FF84FF00008C4F830804E4F84F88A
:104D4000348084F835803878FF2801D2401C3870D0
:104D5000304600F00BFEFEF785FE00F003FE8246B3
:104D6000387808B1401E3870204600F07AFD43497B
:104D700046460878401E087049F82580A069D0B1E1
:104D800061694161D4E9050181613D480168616162
:104D900004603CA0206594F8580020B1A06801F0A0
:104DA0005DFF84F85860504600F0E0FD3048007820
:104DB000012806D007E060693349866160690860B0
:104DC000E3E7FEF756FB002075E710B50446202800
:104DD00010D0FF2C10D000F0C5FD214951F824104F
:104DE000A1B1012916D03F2281F83B2000F0BEFD81
:104DF000002010BD3E2010BD00F0B4FD1949096827
:104E000091F83B4000F0B2FD204610BD00F0AEFD31
:104E1000432010BD00F0AAFD3D2010BD2DE9F0415A
:104E2000064614480F461446007810B11120107041
:104E300037E000F097FD0546FF2E03D109480068D2
:104E400090F83660064850F82600432628B301281B
:104E500023D0006D3860FEF7ADFA0646284615E00F
:104E6000981000202C00002040000020120000209C
:104E7000130000200E0000200F000020140000206E
:104E8000300000203F0000003800002000F06EFDE0
:104E9000002020703046BDE8F081284600F066FD15
:104EA00026700020F7E770B5054699480E4614466F
:104EB000007810B11220107070BD00F053FDFF2D6E
:104EC00003D19449096891F83650934951F8252047
:104ED00043253AB1012A05D0166500F047FD0020B0
:104EE000207070BD00F042FD257070BD10B5044605
:104EF00000F038FD884951F8241059B101290DD02E
:104F000091F8342013072BD532F0080281F83420B1
:104F100008D009E000F02AFD462010BD00F026FD73
:104F2000432010BD0A6B1AB100F020FD002010BD17
:104F30007A4A01F138018B78147843EA040313703C
:104F40000A78774C4978A35C43EA0103A35400F044
:104F50000DFD744800780128E8D1FEF78AFAE5E7EC
:104F600000F004FD442010BD2DE9F041044600206E
:104F700008600E46486000F0F5FCFF2C03D165493F
:104F8000096891F83640644951F8241051B101295B
:104F900008D00A8AD20709D0D1E90257002400F0CC
:104FA000E5FC08E000F0E2FC432074E700F0DEFCE2
:104FB000452070E7641C01CD0028FBD0A0003060C4
:104FC000381B80007060002065E770B5044600F073
:104FD000C9FC01464F48FF2C006805D090F8360008
:104FE000A04204D1012503E090F83640FAE70025FD
:104FF000494850F8240058B101280ED090F83820C4
:10500000474C90F83960A35CB343A3540AD00FE037
:10501000084600F0ABFC482070BD084600F0A6FC36
:10502000432070BD3D4A90F83A401378A343137073
:1050300010F8342F42F008020270084600F096FC87
:10504000012D01D1FEF715FA002070BD70B505469F
:105050000E4600F087FC0446FF2D03D12D48006862
:1050600090F836502C4850F8251051B101290DD038
:105070005C223046FEF76FFD204600F077FC0020F2
:1050800070BD204600F072FC292070BD204600F063
:105090006DFC432070BD70B504460E46154600F009
:1050A00061FC0146FF2C0CD01B4850F8240000EB9B
:1050B0008600446D084600F059FC00202870204608
:1050C00070BD14480068F2E72DE9F04107460C4630
:1050D00015461E4600F046FC0146FF2F0BD00E4839
:1050E00050F8270000EB84004565084600F03EFCC0
:1050F00000203070CFE607480068F3E7054810B598
:10510000006800F0B2FBBDE81040FF20CCE50000D5
:105110000E0000202C00002098100020120000201B
:10512000400000201300002070B504464C48007871
:1051300000281DD1002C1BD000F014FC0346494868
:10514000494D016891F8382091F83960A85CB04366
:10515000A85405D1454891F83A500278AA43027004
:1051600018460C6300F002FCBDE87040FEF781B900
:1051700070BD10B53A4C24780CB1552010BD5B1DA4
:10518000642463434FF47A74B3FBF4F34FF4616423
:105190006043C1EB011100EB8100104400EBC00142
:1051A00001EB001003EB8000FFF7BEFF002010BDF5
:1051B00010B50446202801D32A2010BD00F0D2FBF0
:1051C0002B4951F8241091B1012910D00A6B92B1EA
:1051D00000230B6391F8342012F0370F0FD022F028
:1051E000370281F83420012281F8352009E000F0EF
:1051F000BDFB432010BD00F0B9FB502010BD81F86D
:10520000353091F83420120713D4184A01F13801CF
:105210008B78147843EA040313700A78124B4978A8
:105220009C5C44EA01049C5400F0A0FBFEF721F9C9
:1052300001E000F09BFB002010BD10B500F092FBD8
:105240000C490C6800F092FB204610BD10B50446D6
:1052500000F088FB07490C60BDE8104000F086BBF9
:105260000E0000202C000020400000201200002032
:10527000981000203C0000202DE9F04100F084FE51
:105280004FF47A76B0FBF6F106FB110400F07CFED9
:10529000B0FBF6F12246F3A03AF0AEF9F5A03AF0F1
:1052A000ABF9F8A03AF0A8F90024F74F00F06CFE33
:1052B000B0FBF6F106FB110500F066FEB0FBF6F15F
:1052C0002A46E8A03AF098F907EB84102146426894
:1052D000EEA03AF091F9EBA03AF08EF9641C142C90
:1052E000E4DBBDE8F0812DE9FF5F0746E948DDF822
:1052F00038B0109D0078884691469A4608B18B20B8
:105300002BE0FEF701FBE44800260468F4B1E168F5
:105310000160E249E66026610888401C0880E04898
:105320000188491E0180ACB1012084F82500C4E940
:10533000067884F82490C4E901AB0F982062FEF748
:10534000F6FA2E70204604B0BDE8F09FFFF794FFF8
:105350003446E8E7FEF7EBFA862028700020F2E7F3
:10536000002180F8251080F82410C161416141605E
:10537000CCA2816002620161C7490A68C26008600C
:10538000C6490888401E0880C5490888401C088016
:10539000704710B54169C44A01F0070102EBC10131
:1053A00000240B68C268834203D10A602AB11461E9
:1053B00003E00369DA6002B11361012280F825205D
:1053C000C46004618888401E888010BD70B50546A1
:1053D00000780C46642801D0892003E0AD480078AD
:1053E00010B18B2008701EE0FEF78EFA95F825109C
:1053F000A9B1002601290AD0022908D0032903D027
:10540000FEF795FA8D200DE02846FFF7C2FF2846EB
:10541000FFF7A6FFFEF78BFA2670012070BDFEF79E
:1054200086FA87202070002070BD70B50546007890
:105430000E461446642801D0892003E09548007880
:1054400010B1112010701DE0FEF75EFA95F82520CE
:10545000A2B1012A07D0022A05D0032A03D0FEF701
:1054600066FA8D200DE0286A3060FDF7A3FF05463F
:10547000FEF75DFA00212170284670BDFEF757FA4D
:1054800087202070002070BD2DE9F041054600788E
:105490000C46642801D0892003E07E48007810B1D2
:1054A0008B2008702CE0FEF72FFA95F8250018B332
:1054B0000026012810D002281AD0032803D0FEF7B6
:1054C00036FA8D201BE0794968690968451AFEF7AC
:1054D0002EFA2670284604E795F82400AF690228C2
:1054E00001D107B9EF69FEF722FA26703846F8E6CF
:1054F000FEF71DFA267003E0FEF719FA87202070E8
:105500000020EEE670B5044600780D46642801D010
:10551000892003E05F48007818B18B2008700020D4
:1055200070BDFEF7F1F994F825403CB1012C05D08F
:10553000022C03D0032C01D08D2000E00020287025
:10554000FEF7F5F9204670BD032280F82520574A62
:105550000129126813D0816989B111444161524A0D
:1055600001F0070102EBC10100230A68086042B1A3
:10557000C26010618A88521C8A8003617047C169C9
:10558000EBE70122C360F7E770B5054600780C46EB
:10559000642801D0892003E03E48007810B18B20B8
:1055A00008701FE0FEF7B0F995F82510B1B100269C
:1055B00001290AD0022908D0032903D0FEF7B7F940
:1055C0008D200EE02846FFF7E4FE00212846FFF775
:1055D000BBFFFEF7ACF92670012070BDFEF7A7F9FE
:1055E00087202070002070BD2DE9F041054600782D
:1055F0000E4617461C46642801D0892003E0254842
:10560000007810B18B2018705BE0FEF77DF995F8FB
:10561000250028B301284BD0022849D0032803D005
:10562000FEF785F98D204BE02846FFF7B2FE0020FB
:1056300020708EB18F20032E03D0042E05D084203D
:1056400009E06A683AB1A96802E06A681AB13946A5
:105650002846904700E02070FEF769F9012040E6F7
:105660002BE000005B453A2025642E253033645D35
:10567000200000006F732064756D705F74696D6544
:10568000720000000D0A0000AC1800207425643A76
:10569000257800000E00002060000020520000204D
:1056A000500000203F000000AC1E002054000020ED
:1056B000FEF73DF98E202070D0E7FEF738F98720FD
:1056C000207000200DE64B480068FFF755B908B57B
:1056D000DFF82081DFF82091484E6A460021D8F893
:1056E0000000FFF7BCF8FEF70FF93068401C30608F
:1056F00000F00700022759F8304014E06069316873
:10570000E56888420ED12046FFF743FE94F8240056
:1057100002280DD084F82570606818B104F12C00BF
:1057200000F0E2FB2C46002CE8D1FEF700F9D4E7AC
:1057300001212046FFF708FFEEE730B589B04FF4AE
:10574000A0612F48FEF70DF840212B48FEF709F81D
:105750002B48002100F140020B466424047080F8BD
:105760002530AFF2C0050562C260491C40304032AE
:1057700089B21329F2D3047080F82530AFF2DC012E
:10578000C36001621D48204903601E480380142045
:1057900008801E491A4808600120FEF7E4FF1C4CEF
:1057A00020600020FEF7DFFF124D06AA19A1286035
:1057B0002068FDF72EFE06AA1BA12868FDF729FE2A
:1057C000002302AC0322194640200FC41B4B4FF6A6
:1057D000FD72CDE90023194A1723FC320021184835
:1057E000FFF715FA07AA17A11720FFF75CFB09B00E
:1057F00030BD00005C000020AC1E002054000020E2
:10580000AC18002052000020500000206000002052
:105810005800002075432F4F532D494920546D7275
:105820004C6F636B0000000075432F4F532D4949A7
:1058300020546D725369676E616C0000AC1D0020CE
:10584000CF56000875432F4F532D494920546D7290
:10585000000000004049002008807047704730F089
:105860003BBA30F03ABA7047704730F037BA30F090
:1058700039BA4FF080731360131FA2F1240218602D
:105880003648D0614FF0123090614FF003305061D4
:105890004FF0023010614FF00130C2E902104FF0BA
:1058A000113050604FF0103042F804094FF00930C9
:1058B0001060A2F110004FF00831C1604FF00731C5
:1058C00081604FF0063141604FF0053140F8041916
:1058D0004FF004310160704730F002BA30F0FFB988
:1058E00010B530F0FEF91C490888401C80B20880D1
:1058F0000A2805D300200880BDE81040FFF7E3BE6A
:1059000010BD174810B50178491C0170124988680C
:10591000401C8860C868401CC8600A2806DB4868CC
:10592000401C48600020C860FEF747F8BDE8104002
:1059300001203AF0B7BD4FF0E021401E4861FF2042
:1059400081F8230D086940F005000861086940F0FE
:10595000020008617047000064000020FD5000084C
:105960000E000020EFF3108072B6704780F31088AD
:1059700070471D484FF0FF010170002080F3098837
:105980001A48012101701A484FF08051016062B637
:10599000FEE717484FF080510160704714484FF000
:1059A00080510160704772B6EFF3098028B120384A
:1059B00080E8F00F0F490968086000B50E4880477D
:1059C0005DF804EB0D480E490A78027009480D494C
:1059D0000A680260106890E8F00F203080F30988B0
:1059E0004EF0040E62B6704722ED00E01300002076
:1059F00004ED00E02C000020D95800081000002021
:105A0000110000203400002070B504460D46FFF759
:105A1000A9FF217819B1FFF7A9FF012070BD2570FA
:105A2000FFF7A4FF002070BD70B505460C46FFF7D8
:105A300099FF2C70BDE87040FFF798BF10B5044681
:105A40003AF05EFD2478FFF791FF204610BD70B557
:105A500005460C463AF054FD217829442170BDE8F2
:105A60007040FFF783BF70B505460C463AF048FD1D
:105A70002178491B2170BDE87040FFF777BF70B5F2
:105A800004460D463AF03CFD29780C442C70FFF793
:105A90006DFF204670BD70B504460D463AF030FDEE
:105AA00029780C1B2C70FFF761FF204670BD0000A9
:105AB00038B505460120FEF756FE040003D06A46BD
:105AC0002946FDF7A6FC204638BD38B56A460021B8
:105AD000FEF7C5FE9DF80000002819D000F054FA2A
